:020000040800F2
:10000000F80E002005190008EB020008ED020008B8
:10001000F1020008F5020008F902000800000000E3
:10002000000000000000000000000000FD020008C9
:10003000FF0200080000000001030008030300089D
:10004000730500081F1900081F1900081F19000870
:100050001F1900081F190008111600087B16000858
:10006000E516000847170008CB1700081F190008FD
:100070001F1900081F1900081F1900081F19000880
:100080001F1900081F1900081F1900081F19000870
:100090001F1900081F1900081F1900081F19000860
:1000A0001F1900081F1900081F1900081F19000850
:1000B0001F190008A70900084D0800081F190008AB
:1000C0001F1900081F1900081F1900081F19000830
:1000D0001F190008671400081F1900081F190008DD
:1000E0001F1900081F1900081F1900081F19000810
:1000F0001F1900081F1900081F1900081F19000800
:100100001F1900081F1900089B0700081F19000885
:100110001F1900081F1900081F1900081F190008DF
:100120001F1900081F1900081F1900081F190008CF
:1001300000F002F800F05AF80AA090E8000C82449F
:100140008344AAF10107DA4501D100F04FF8AFF27C
:10015000090EBAE80F0013F0010F18BFFB1A43F0A5
:1001600001031847D0450000F04500000A444FF055
:10017000000C10F8013B13F0070408BF10F8014B06
:100180001D1108BF10F8015B641E05D010F8016B4B
:10019000641E01F8016BF9D113F0080F1EBF10F8AF
:1001A000014BAD1C0C1B09D16D1E58BF01F801CBD2
:1001B000FAD505E014F8016B01F8016B6D1EF9D555
:1001C0009142D6D37047000000230024002500266A
:1001D000103A28BF78C1FBD8520728BF30C148BFAA
:1001E0000B6070471FB51FBD10B510BD03F0A4F91B
:1001F0001146FFF7F7FF00F05FF803F0C2F903B410
:10020000FFF7F2FF03BC03F0C3F92DE9F8430446FE
:100210000D4608220021084600F038FF092200217F
:10022000102000F033FF06220021202000F02EFFD6
:1002300007220021302000F029FF0E220221002099
:1002400000F024FF0F220221102000F01FFF0A22DD
:100250000221202000F01AFF0B220221302000F0A2
:1002600015FF2046294603F0A7FB0646102003236E
:10027000324602210090412000F0A7FE01F0BAFAB8
:10028000064603F099FB80461020032342460421D2
:100290000090412000F099FE01F0B2FA064603F00A
:1002A0008BFB80461020032342460621009041200C
:1002B00000F08BFEBDE8F8834FF4A06001F042FB34
:1002C00001F0B6FA00F090FF00F0FCFC00F0E7FD52
:1002D00040F2CF2140F2CF7000F0B6F904E001F017
:1002E00087F90446FFF791FFF9E7704700BFFEE783
:1002F00000BFFEE700BFFEE700BFFEE770477047A4
:10030000704770470CB50020019000906C48006861
:1003100040F480306A49086000BF6948006800F412
:10032000003000900198401C0190009818B9019885
:10033000B0F5A06FF1D16248006800F4003010B150
:100340000120009001E0002000900098012843D196
:100350005C48006840F010005A4908600846006890
:1003600020F0030008600846006840F002000860C2
:10037000534840685249486008464068486008460B
:10038000406840F4806048600846406820F47C1073
:1003900048600846406840F4E81048600846006835
:1003A00040F08070086000BF4548006800F00070B1
:1003B0000028F9D04248406820F0030040494860D6
:1003C0000846406840F00200486000BF3C48406872
:1003D00000F00C000828F9D10CBD10B5FFF792FF12
:1003E00010BD10B53648006840F00100344908607F
:1003F000084640683449084031494860084600686A
:10040000324908402E4908600846006820F48020E0
:1004100008600846406820F4FE0048604FF41F0062
:100420008860FFF7DAFF4FF000602949086010BDCF
:1004300010B5002100200022214B5B6803F00C0165
:1004400021B1042906D0082928D107E0214B224CEC
:10045000236027E01F4B204C236023E0184B5B6890
:1004600003F47010164B5B6803F48032022303EB35
:10047000904022B9194B4343174C23600DE0104BB9
:100480005B6803F4003323B1144B4343124C2360E5
:1004900003E0104B4343104C236003E00D4B0E4C24
:1004A000236000BF00BF064B5B68C3F303130C4C13
:1004B000E15C094B1B68CB40074C236010BD00007A
:1004C00000100240002002400000FFF8FFFFF6FE8F
:1004D00008ED00E000127A000000002000093D0055
:1004E0000400002070B505460C4645F2555002F058
:1004F000A9F8284602F0A9F8204602F0A9F802F06F
:10050000AAF802F0ADF870BD10B502F0A4F810BD65
:10051000F8B506460C4615460121C80201F0A9FDB2
:100520001C48007830401B490870284602F0C3FF81
:10053000204602F0C9FF1748007802F0E0FF02F001
:10054000E9FF00208DF8000002208DF80100032053
:100550008DF8020001208DF80300684601F0F7F9DC
:1005600002F0C3FFF8BD10B50446204602F0C7FFF5
:1005700010BD10B50748007802F0BBFF02F0CAFFBB
:100580000548006808B9012000E000200249086021
:1005900010BD000014000020840123427FB50546F1
:1005A0000C460121042001F064FD0020ADF80A0092
:1005B000ADF80600ADF80850ADF8044001A9AB480D
:1005C00002F034F901221146A84802F0A6FC1E20D0
:1005D0008DF8000001208DF803008DF801008DF8E2
:1005E0000200684601F0B3F90121A04802F07AFC4C
:1005F0007FBD7FB505460C460121022001F039FD83
:100600000020ADF80A00ADF80600ADF80850ADF8CE
:10061000044001A9964802F009F9012211469448C4
:1006200002F07BFC1D208DF8000001208DF80300F6
:100630008DF801008DF80200684601F088F901216B
:100640008B4802F04FFC7FBD30B589B005460C46A3
:100650000121022001F00DFD0121102001F0FCFC20
:100660000121084601F0F8FC0121824801F009FB54
:1006700018208DF823004FF46070ADF8200003209F
:100680008DF8220008A97C4801F02AFA0020ADF874
:100690001A00ADF81600ADF81850ADF8144005A9D1
:1006A000734802F0C3F86020ADF804000020ADF8F4
:1006B0000C000120ADF8060001A96D4802F035F9E3
:1006C00008216B4802F047FD01A9694802F0C5F90D
:1006D0000821674802F055FD01A9654802F072F94A
:1006E0000821634802F044FD0121614802F0FAFB51
:1006F00009B030BD30B589B005460C46012108204F
:1007000001F0B7FC0121042001F0A6FC0220ADF8A5
:10071000200028208DF8230008A9584801F0E0F9AE
:100720000221564801F08BFAADF81850ADF814408C
:100730000020ADF81A00ADF8160005A9504802F0E7
:1007400075F80420ADF804000020ADF80600012083
:10075000ADF808000020ADF80A00ADF80C0001A9C2
:10076000474802F0F6FA32208DF8100002208DF88A
:10077000110000208DF8120001208DF8130004A84C
:1007800001F0E5F8012205213D4802F0C6FB0121F8
:100790003B4802F0A7FB09B030BD10B539480078DE
:1007A00000F0800000284CD10121354802F063FEA2
:1007B000D0B13448007800F04000A8B1314800784A
:1007C00000F03F003F280AD12E48007840F080001A
:1007D0002C4908704FF6FF702B49088004E0294827
:1007E0000078401C274908700221254802F043FE8A
:1007F00038B32448007800F0400078B121480078F0
:1008000040F080001F4908701D4802F015FE1E4987
:10081000088000211A4802F017FD12E00020194953
:100820000870194908800021154802F0EFFD1548AD
:10083000007840F04000134908700221104802F08F
:1008400003FD03210E4802F027FE10BD10B5012163
:10085000064802F010FE40B10121044802F01CFEDF
:100860004FF42F71024802F0D7FD10BD0008004080
:1008700000040040000C1A00001001400008014074
:10088000000C0040160000201800002010B50120C8
:10089000514908600B2000F0E4FF00204F49C1F8E7
:1008A000A80110BD2DE9F84F4FF0000A4C48008810
:1008B00003F0C6F806464FF033324A4B03F010F906
:1008C00004460022484B02F01FFF804603F074F8F4
:1008D0008246BAF52F7F03D83F48006801280BD124
:1008E00000204249087010200323002202210090BA
:1008F000104600F06AFB07E0102005235246042151
:100900000090002000F061FB002035490880BDE820
:10091000F88F08B50121102001F09EFB4FF4806094
:10092000ADF8000010208DF8030003208DF80200C0
:1009300069462F4801F0D4F84FF480612D4801F04A
:100940007CF94FF48050ADF800006946294801F069
:10095000C7F82021274801F070F908BD4721092078
:10096000FFF747FE0021244802F0BCFAFFF7D1FF51
:1009700018E0FFF78BFF00BF204800680028FBD07D
:1009800001211F4802F0AEFA00BF1C480068002891
:10099000FBD10021184802F0A5FAFFF783FF0A20D7
:1009A00000F083FFE5E710B50121134802F063FD75
:1009B00088B10121104802F06FFD09480088401CF1
:1009C00007490880084600884FF6E851884202DD52
:1009D00001200649087010BDA801224200002242F1
:1009E0001C0000203333FB3F000059401A00002058
:1009F000000C01400010014000040040840121422D
:100A00000008004008B50121102001F025FB4FF43B
:100A1000A050ADF8000010208DF8030003208DF8E1
:100A200002006946FB4801F05BF84FF4A051F94819
:100A300001F003F908BD10B5F648406820F47020B5
:100A4000F44948600846406840F44030486001205E
:100A5000F1490860F149C1F8A801042000F001FF44
:100A60000020ED490860042000F0FBFE0020EB4967
:100A7000C1F8A80110BD10B5E648406820F4702008
:100A8000E44948600846406840F44030486001202E
:100A9000E149083908600020E049C1F8B0010420AC
:100AA00000F0DFFE0120DC490860042000F0D9FEE0
:100AB00010BD10B50024D748406820F47020D549F7
:100AC00048600846406840F4002048600120D24950
:100AD000086000F0C6FE0120D049C1F8A80100F06E
:100AE000C0FE07E0601CC4B2FA2C03DDFFF7C3FFB1
:100AF000012010BDC848803800680028F2D1C649DE
:100B00000839086000BFF4E710B50020C249083971
:100B10000860C048406820F47020BE49486008461C
:100B2000406840F4403048600020BC49C1F8B00142
:100B3000022000F096FE0120B74908390860022023
:100B400000F08FFE0020B549C1F8A80110BD10B516
:100B50000020B14908390860AE48406820F4702090
:100B6000AC4948600846406840F440304860012085
:100B7000AA49C1F8B001022000F073FE0120A64985
:100B800008390860022000F06CFE0020A349C1F87B
:100B9000A80110BD70B504469E48406820F470203E
:100BA0009C4948600846406840F440304860002056
:100BB000994908390860002517E0E009964908605E
:100BC0006006040E022000F04CFE01209349C1F89B
:100BD000A801022000F045FE00208F490839086076
:100BE000022000F03EFE681CC5B2082DE5DB70BD9A
:100BF00070B5054600248748406820F47020854978
:100C000048600846406840F400204860002617E02D
:100C10000020814908390860022000F022FE0120EE
:100C20007E49C1F8A8016006040E7B488038006840
:100C300008B1601CC4B2012000F013FE701CC6B2E3
:100C4000082EE5DB15B9FFF782FF01E0FFF75CFF37
:100C5000204670BD10B50446FFF7EDFE7820FFF783
:100C600099FFFFF726FF0020FFF794FFFFF721FF12
:100C70002046FFF78FFFFFF71CFFFFF7FCFE10BDBC
:100C800010B50446FFF7D7FE7820FFF783FFFFF784
:100C900010FF4020FFF77EFFFFF70BFF2046FFF716
:100CA00079FFFFF706FFFFF7E6FE10BD70B50446BB
:100CB0000D461DB1E0B2FFF7E3FF02E0E0B2FFF73F
:100CC000C9FF70BD10B5FFF79DFEC82000F0EDFD17
:100CD0000021AE20FFF7EAFF00210846FFF7E6FFFC
:100CE00000211020FFF7E2FF00214020FFF7DEFF88
:100CF0000021B020FFF7DAFF00218120FFF7D6FFA7
:100D00000021FF20FFF7D2FF0021A120FFF7CEFF37
:100D10000021A620FFF7CAFF0021A820FFF7C6FF89
:100D200000213F20FFF7C2FF0021C820FFF7BEFFD0
:100D30000021D320FFF7BAFF00210846FFF7B6FFD6
:100D40000021D520FFF7B2FF00218020FFF7AEFF82
:100D50000021D820FFF7AAFF00210520FFF7A6FFFA
:100D60000021D920FFF7A2FF0021F120FFF79EFF0D
:100D70000021DA20FFF79AFF00211220FFF796FFEB
:100D80000021DB20FFF792FF00213020FFF78EFFCC
:100D900000218D20FFF78AFF00211420FFF786FF36
:100DA0000021AF20FFF782FF10BD70B500241BE0CB
:100DB00004F1B0000021FFF779FF00210846FFF79A
:100DC00075FF00211020FFF771FF002508E014498E
:100DD00001EBC501085D0121FFF768FF681CC5B282
:100DE000802DF4DB601CC4B2082CE1DB70BD70B553
:100DF0000646002420E004F1B0000021FFF756FF72
:100E000000210846FFF752FF00211020FFF74EFF98
:100E100000250DE000100140B001224200002242F6
:100E20009404002001213046FFF740FF681CC5B242
:100E3000802DF7DB601CC4B2082CDCDB70BD70B504
:100E400004460D4605F1B0000021FFF72FFF1021E9
:100E500041EA14100021FFF729FF04F00F000021E0
:100E6000FFF724FF70BD10B500218D20FFF71EFF96
:100E700000211420FFF71AFF0021AF20FFF716FF13
:100E800010BD10B500218D20FFF710FF00211020AC
:100E9000FFF70CFF0021AE20FFF708FF10BD70B573
:100EA000002418E004F1B0000021FFF7FFFE00214C
:100EB0000846FFF7FBFE00211020FFF7F7FE002594
:100EC00005E001210020FFF7F1FE681CC5B2802D6E
:100ED000F7DB601CC4B2082CE4DB70BD70B50024E5
:100EE00018E004F1B0000021FFF7E0FE0021084601
:100EF000FFF7DCFE00211020FFF7D8FE002505E0FB
:100F000001210846FFF7D2FE681CC5B2802DF7DB31
:100F1000601CC4B2082CE4DB70BD2DE9F047074625
:100F20000E469046994600250024A8F12000C5B23F
:100F30007F2F02DD0027B01CC6B2B9F1100F24D1FB
:100F400031463846FFF77BFF002408E004EB05112B
:100F5000844A505C0121FFF7A9FE601CC4B2082C32
:100F6000F4DB701CC1B23846FFF769FF002409E0CA
:100F700004EB051108317B4A505C0121FFF796FE16
:100F8000601CC4B2082CF3DB12E031463846FFF790
:100F900056FF00240AE005EB4501734A02EB4101CC
:100FA000085D0121FFF782FE601CC4B2062CF2DB53
:100FB000BDE8F08710B50246012000E050430B0069
:100FC000A1F10104E1B2F9D110BD2DE9FF5F07469F
:100FD00091461E460E9D4FF0000A002435E0301B5E
:100FE000401EC1B20A20FFF7E5FFB9FBF0F00A216D
:100FF000B0FBF1F201FB1208BAF1000F14D1701E20
:10100000A04211DDB8F1000F0CD1AB4605EBDB714E
:10101000491001FB0471C8B22B4620220199FFF749
:101020007CFF10E04FF0010AAB4605EBDB71491085
:1010300001FB0471C8B208F13001CAB22B46019914
:10104000FFF76BFF00BF601CC4B2B442C7DBBDE852
:10105000FF9F2DE9F04104460F46154698460026AD
:101060000FE0AA5D434639462046FFF756FF04F1DC
:101070000800C4B2782C02DD0024B81CC7B2701C72
:10108000C6B2A85D0028ECD1BDE8F0812DE9F041A1
:1010900080460E461546002731464046FFF7CFFEF4
:1010A00000240AE0314A02EB8511085D0121FFF7B7
:1010B000FDFD781CC7B2601CC4B2102CF2DB701CA2
:1010C000C1B24046FFF7BBFE00240CE06900491C9A
:1010D000264A02EB4111085D0121FFF7E7FD781C6C
:1010E000C7B2601CC4B2102CF0DBBDE8F0812DE962
:1010F000F05F06460F4690461C46DDF828A04FF0EC
:10110000000BE11704EB5171C910A4EBC10131B917
:101110002046E11704EB5171C1F3C70506E02046F4
:10112000E11704EB5171C910491CCDB23D4615E0E1
:1011300029463046FFF783FEB1460BE059460BF1D6
:10114000010B1AF801000121FFF7B0FD09F10100C0
:1011500000F0FF09C145F1DB681CC5B2A542E7DB21
:10116000BDE8F09F444100081C3F00081E0000201D
:1011700070B586B0FB4C251566150121880300F07B
:101180006BFF0121042000F067FF03208DF816009B
:1011900018208DF81700ADF8146005A9F24800F08A
:1011A0009FFC04208DF81700ADF8145005A9EE48F7
:1011B00000F096FC4FF4E13001900020ADF81000F3
:1011C0000C20ADF80E000020ADF80C00ADF80A00C0
:1011D000ADF8080001A9204600F0E5FF01212046F6
:1011E00001F06DF806B070BDF0B587B0DD4C252577
:1011F000261567150121880300F02EFF0121042028
:1012000000F02AFF03208DF81A0018208DF81B002B
:10121000ADF8187006A9D44800F062FC04208DF8DF
:101220001B00ADF8186006A9CF4800F059FC4FF438
:10123000E13002900020ADF814000C20ADF812004F
:101240000020ADF81000ADF80E00ADF80C0002A9BA
:10125000204600F0A8FF8DF8045001208DF807000B
:1012600002208DF805008DF8060001A800F06FFB44
:10127000012240F22551204601F02DF8012120469F
:1012800001F01DF807B0F0BD2DE9F04704460D460A
:10129000B64AB74B2046294602F022FC06460022F9
:1012A000B44B02F07DF98046894640464946BDE888
:1012B000F08770B5B04AB14BB14903C902F070F97B
:1012C000AF4A03C20022AF4BAD4903C902F006FD8D
:1012D00004D20021AC48AA4AC2E90010A84903C9B7
:1012E000FFF7D2FF054602F067FB84B22146A7480C
:1012F00002F092F870BD70B59F4AA04BA04903C997
:1013000002F022FD9E4A03C200229F4B9C4903C962
:1013100002F0AAFB04D200219A48994AC2E90010BF
:10132000974903C9FFF7B0FF054602F045FB84B2B9
:101330002146964802F070F870BD02460B46704791
:101340002DE9F04714461D4620462946FFF79CFF2D
:10135000074602F031FB86B231468C4802F05EF857
:10136000874903C9FFF7E9FF8046FFF78DFF06466F
:1013700002F022FB1FFA80FA5146844802F050F82E
:10138000BDE8F08770B500208149086001208149DF
:101390000860002080490860804908608049086032
:1013A000804908608049086000BF804800680028C4
:1013B000FBD07D48006802F02CFB044622460B4619
:1013C0006F4903C9FFF7BCFF70BD70B500207049BD
:1013D000086001206F49086000206F4908606F496C
:1013E00008606F4908606F4908606F49086000BF76
:1013F0006E4800680028FBD06B48006802F009FBCB
:10140000044622460B465E4903C9FFF799FF70BDAB
:101410006748006870473EB500250024514800F039
:10142000BFFF30386349086000BF06E04D4800F058
:10143000B7FF30384DF82400641C5E4800688442D1
:10144000F4DB002406E05DF82400054405EB85008C
:101450004500641C574800688442F4DB0A2095FB71
:10146000F0F528463EBD10B54A48006800284DD02A
:101470004748006800284AD1FFF7CDFF4C49086073
:10148000FFF7C9FF4C490860FFF7C5FF4B490860EB
:101490004148006880B946480068A02802DDFFF78F
:1014A0002AFF09E042480068A02802DAFFF701FF9E
:1014B00002E001203849086037480068A8B139487F
:1014C000006890B935480068401C344908603448C9
:1014D00000683A4909680844314908602F480068A3
:1014E000142802D101202F4908602E4800680028E6
:1014F0007DD02B480068142190FBF1F02A49086048
:1015000001202A4908600020224908606FE0154840
:1015100000F046FF26490860124800F041FF2649C6
:101520000860104800F03CFF24490860204800880B
:1015300081B20C4800F030FF1F48008881B2094892
:1015400000F02AFF1D48008881B2064800F024FF01
:1015500011480068A0BB16480068A02831DDFFF7DD
:10156000CAFE38E000380140000801405C8FC2F537
:10157000285CE73F008048409A9999999999B93F2A
:1015800050040020008056400000F03F000400405E
:1015900044040020400400202C04002030040020DB
:1015A0003404002038040020480400203C040020BB
:1015B00020040020580400202404002028040020D7
:1015C00009E00D480068A02802DAFFF772FE02E089
:1015D00001200A4908600948006840B1FA2008491A
:1015E000086001200749086000200749086010BD15
:1015F000064903C970470000200400202C04002085
:10160000480400203C040020400400205004002036
:1016100010B50A2000F049F904217C4800F0F3FAE3
:1016200038BB7B48006818B901207949086020E080
:101630007848006868B978480068784909680844BB
:10164000754908600846006800EB800040000860AB
:101650000FE07348006860B9724800687249096811
:101660000844704908600846006800EB80004000AC
:101670000860012000F0DDFF10BD10B50A2000F069
:1016800014F90821614800F0BEFA08BB6048006800
:10169000F0B16048006870B95F48006838B95E48CA
:1016A00000680A2190FBF1F05B49086016E0002019
:1016B0005A49086012E05A48006848B95948006819
:1016C00038B9584800680A2190FBF1F05549086084
:1016D00004E00020544908604E490860022000F0F0
:1016E000A8FF10BD10B50A2000F0DFF81021474810
:1016F00000F089FA18BB4648006800B34548006806
:1017000068B946480068092803D1002043490860A9
:1017100015E042480068401C404908600FE040481E
:10172000006860B940480068092803D100203E499C
:10173000086004E03C480068401C3B490860042005
:1017400000F077FF10BD2DE9F0410A2000F0ADF860
:1017500020212E4800F057FA002831D12C4800688B
:1017600018B32C48006830B901202A4908600020CD
:101770002A49086024E02A48006830B90120284935
:1017800008600020284908601AE02648006802F036
:1017900040F904460D462048006802F03AF9064632
:1017A00022462B46FFF7CCFD0AE02048006810B91E
:1017B000FFF7E8FD04E01D48006808B1FFF705FEEB
:1017C000082000F036FFBDE8F08110B50A2000F0D7
:1017D0006CF840210D4800F016FA38B9134800683B
:1017E00008B9012000E0002010490860102000F036
:1017F00020FF10BD10B50848006802F00AF910BDBE
:1018000010B50848006802F004F910BD0018014046
:101810005C040020600400206C040020740400209C
:101820006404002070040020780400206804002074
:1018300010B56FF0040000F0D4F82E4800682E496F
:10184000B0FBF1F02D4908700846007800EB40012C
:10185000C1EBC0104FF6FF7101EAC00028490880B3
:1018600010BD0146254A12784A434FF0E0235A61E1
:1018700000229A611A46126942F001021A6100BF01
:101880004FF0E022106900F001021AB100F480323A
:10189000002AF5D04FF0E022126922F001024FF049
:1018A000E0231A6100229A6170470146144A1288A7
:1018B0004A434FF0E0235A6100229A611A461269A6
:1018C00042F001021A6100BF4FF0E022106900F0FF
:1018D00001021AB100F48032002AF5D04FF0E02264
:1018E000126922F001024FF0E0231A6100229A618E
:1018F000704700000000002000127A007C040020E5
:101900007E0400200948804709480047FEE7FEE7BB
:10191000FEE7FEE7FEE7FEE7FEE7FEE7FEE7FEE79F
:1019200004480549054A064B70470000E3030008D8
:1019300031010008F8080020F80E0020F80A002005
:10194000F80A002031490143314A1160704770B5EF
:10195000002100230F22C47804B32D4C246804F422
:10196000E064C4F5E064210AC1F10403CA4044788C
:1019700004FA03F18478144021430901254C0678C8
:10198000A155047804F01F050124AC4005786D11C1
:10199000AD0005F1E025C5F8004109E0047804F048
:1019A0001F050124AC401C4D0678761145F82640F1
:1019B00070BD1A4A0A400243154B1B1F1A6070473C
:1019C00039B1134A121D12680243114B1B1D1A60D4
:1019D00006E00F4A121D126882430D4B1B1D1A6050
:1019E0007047042808D14FF0E021096941F0040153
:1019F0004FF0E022116107E04FF0E021096921F08A
:101A000004014FF0E0221161704700000000FA0568
:101A10000CED00E000E400E080E100E080FFFF1F4B
:101A200010B50446CC48844208D10121042000F0BE
:101A30002DFB0021042000F029FB46E0C74884422A
:101A400008D10121082000F021FB0021082000F02E
:101A50001DFB3AE0C248844208D10121102000F069
:101A600015FB0021102000F011FB2EE0BD48844240
:101A700008D10121202000F009FB0021202000F0E6
:101A800005FB22E0B848844208D10121402000F043
:101A9000FDFA0021402000F0F9FA16E0B348844234
:101AA00008D10121802000F0F1FA0021802000F00F
:101AB000EDFA0AE0AE48844207D10121801500F01A
:101AC000E5FA0021A01500F0E1FA10BD10B50121E2
:101AD000084600F0DBFA0021012000F0D7FA10BD23
:101AE0002DE9F041024600250026002000230024B5
:101AF000002791F803C00CF00F0591F803C00CF01B
:101B0000100CBCF1000F03D091F802C04CEA05059F
:101B100091F800C0BCF1000F31D0146800202BE018
:101B20004FF0010C0CFA00F3B1F800C00CEA030608
:101B30009E4220D183004FF00F0C0CFA03F7BC43F8
:101B400005FA03FC4CEA040491F803C0BCF1280F29
:101B500006D14FF0010C0CFA00FCC2F814C00AE0E8
:101B600091F803C0BCF1480F05D14FF0010C0CFAFD
:101B700000FCC2F810C0401C0828D1D31460B1F892
:101B800000C0BCF1FF0F34DD546800202EE000F1EE
:101B9000080C4FF0010808FA0CF3B1F800C00CEA89
:101BA00003069E4221D183004FF00F0C0CFA03F77D
:101BB000BC4305FA03FC4CEA040491F803C0BCF1F1
:101BC000280F05D100F1080C08FA0CF8C2F81480AF
:101BD00091F803C0BCF1480F07D100F1080C4FF099
:101BE000010808FA0CF8C2F81080401C0828CED36F
:101BF0005460BDE8F0814FF6FF71018002218170D1
:101C00000421C17070470246002093680B400BB15D
:101C1000012000E0002070470146886880B27047CC
:101C200002460020D3680B400BB1012000E00020E9
:101C300070470146C86880B27047016170474161D2
:101C400070470AB1016100E041617047C1607047AF
:101C50004FF480320A4382618161826182698269C4
:101C6000704702460020434B18684FF680731840B7
:101C700040EA021008433F4B186070473E49C86174
:101C80007047F0B50A46002300240021002500F02B
:101C90000046B6F1004F02D1364EF16901E0354EF3
:101CA0007168C0F3034583B200F44016B6F5401FD7
:101CB00008D121F070612F4E766826F070662D4FA6
:101CC0007E6012E000F48016B6F5801F06D1032670
:101CD00006FA05F4A14341F0706106E0460D3601B5
:101CE00003FA06F6B14341F0706122B1460D3601A8
:101CF00003FA06F6314300F00046B6F1004F02D178
:101D00001C4EF16101E01B4E7160F0BD30B5002248
:101D10008B071C0F0F2303FA04F2164B08338C10A9
:101D200053F824309343134C08348D1044F8253075
:101D300023468C1053F824308C07240F00FA04F447
:101D400023430C4C08348D1044F8253030BD0A492B
:101D5000DC3108607047000000080140000C0140C1
:101D6000001001400014014000180140001C014017
:101D7000002001400000014000002042DF480068D0
:101D800040F00100DD49086008464068DC49084031
:101D9000DA49486008460068DA490840D7490860CF
:101DA0000846006820F4802008600846406820F457
:101DB000FE0048604FF41F0088607047CF490968F3
:101DC00021F48031CD4A11601146096821F4802147
:101DD0001160B0F5803F03D0B0F5802F0ED106E042
:101DE000C649096841F48031C44A116007E0C3491B
:101DF000096841F4A021C14A116000E000BF00BFA2
:101E0000704710B501460022002300204A11012A24
:101E100002D1BA4C236806E0022A02D1B74C236AE9
:101E200001E0B64C636A01F01F02012494401C409B
:101E30000CB1012000E0002010BD38B5002000905A
:101E40000024002500BF3120FFF7DBFF0546009886
:101E5000401C00900098B0F5A06F01D0002DF2D08A
:101E60003120FFF7CEFF08B1012400E00024204616
:101E700038BD01460020A14A106820F0F80040EA71
:101E8000C10010607047A0490860704702460020FA
:101E90009A4B586820F47C1042EA01031843974B90
:101EA0005860704798490866704701460020934A79
:101EB000506820F003000843506070478F48406826
:101EC00000F00C007047014600208C4A506820F05A
:101ED000F00008435060704701460020874A506870
:101EE00020F4E06008435060704701460020834AB8
:101EF000506820F4605040EAC1005060704729B13A
:101F00007E4A527A02437D4B5A7204E07B4A527AEF
:101F100082437A4B5A7270477B49D83108607047C8
:101F200001460020754A506820F440400843506044
:101F300070470021714A20321170704A82F82010D7
:101F4000012802D004280AD104E001216B4A203282
:101F5000117005E00521694A2032117000E000BFD0
:101F600000BF70476949086070476449096A0143C6
:101F7000624A11627047654944390860704730B55C
:101F800000210022002400235C4D6D6805F00C0147
:101F900021B1042905D0082923D105E05C4D056055
:101FA00022E05B4D05601FE0544D6D6805F4701232
:101FB000524D6D6805F48034022505EB92421CB940
:101FC000544D554305600BE04C4D6D6805F40035EC
:101FD0001DB1504D5543056002E04D4D5543056020
:101FE00002E04B4D056000BF00BF444D6D6805F039
:101FF000F0010909484D6B5C0568DD4045603F4DC7
:102000006D6805F4E061090A434D6B5C4568DD408D
:1020100085603A4D6D6805F46051C90A3E4D6B5CB0
:102020004568DD40C560354D6D6805F44041890B5C
:102030003A4D6B5CC568B5FBF3F5056130BD29B160
:102040002E4A526902432D4B5A6104E02B4A5269D1
:1020500082432A4B5A61704729B1284A9269024348
:10206000264B9A6104E0254A92698243234B9A6188
:10207000704729B1214AD2690243204BDA6104E05A
:102080001E4AD26982431D4BDA61704729B11B4A4F
:10209000D2680243194BDA6004E0184AD2688243DE
:1020A000164BDA60704729B1144A12690243134B88
:1020B0001A6104E0114A12698243104B1A61704799
:1020C00012494039086070470F49C86470470B498E
:1020D000C87170470948406A40F0807007494862FB
:1020E000704701460020054A92680A400AB1012063
:1020F00000E00020704701498872704700100240DC
:102100000000FFF8FFFFF6FE00004242800442425A
:1021100000127A0000093D00800400209004002095
:1021200010B50446FB48844209D101218803FFF71A
:10213000ADFF00214FF48040FFF7A8FF32E0F648E2
:10214000844209D101214804FFF7ADFF00214FF47B
:102150000030FFF7A8FF25E0F048844209D10121B3
:102160008804FFF7A0FF00214FF48020FFF79BFFBA
:1021700018E0EB48844209D10121C804FFF793FF1E
:1021800000214FF40020FFF78EFF0BE0E54884426A
:1021900008D101210805FFF786FF00214FF48010C8
:1021A000FFF781FF10BD2DE9F04786B005460E46CA
:1021B0000024A24600BFA1460027B08900B100BF9D
:1021C0002F462C8A4CF6FF700440F08804432C8282
:1021D000AC894EF6F3100440B08831890843718908
:1021E00008430443AC81AC8A4FF6FF400440B089F9
:1021F0000443AC8201A8FFF7C2FEC648874202D161
:10220000DDF810A001E0DDF80CA0A88900F4004082
:1022100040B10AEBCA0000EB0A1031684900B0FB7C
:10222000F1F807E00AEBCA0000EB0A1031688900F8
:10223000B0FBF1F86420B8FBF0F004012009642140
:1022400001FB1089A88900F4004040B1322000EB66
:10225000C900B0FBF1F000F00700044308E03220B1
:1022600000EB09106421B0FBF1F000F00F00044313
:102270002C8106B0BDE8F0874FF4165101600021B3
:102280008180C18001810C214181002181817047C1
:1022900010B502460020108A4FF2FF0318400B8849
:1022A0004C8823438C882343CC88234318431082D3
:1022B00010BD0021018041808180C180704721B123
:1022C000828942F40052828104E082894DF6FF73D4
:1022D0001A4082817047F0B503460024002600258D
:1022E000002040F66A17B94200D100BF1846C1F37A
:1022F000421401F01F06012707FA06F5012C01D14F
:102300000C3004E0022C01D1103000E014301AB17E
:1023100007682F43076002E00768AF430760F0BD1E
:102320001AB1838A0B43838202E0838A8B438382C0
:102330007047028A4FF6F0731A400282028A0A43FB
:102340000282704782894FF2FF731A40828182892C
:102350000A438281704721B1828942F00202828160
:1023600004E082894FF6FD731A4082817047028A29
:102370004FF6DF731A400282028A0A4302827047D4
:1023800021B1028A42F48042028204E0028A4BF6C2
:10239000FF731A4002827047C1F3080282807047BF
:1023A00001468888C0F308007047818941F0010127
:1023B00081817047028BD2B20283028B42EA0122F2
:1023C00002837047028B02F47F420283028B0A432E
:1023D0000283704721B1828A42F02002828204E0A7
:1023E000828A4FF6DF731A408282704721B1828A57
:1023F00042F01002828204E0828A4FF6EF731A40A4
:102400008282704721B1828A42F00802828204E00F
:10241000828A4FF6F7731A408282704721B182890F
:1024200042F40042828103E08289C2F30E0282817B
:10243000704721B1828A42F40062828204E0828A7B
:102440004FF2FF731A4082827047828A4FF6FB7305
:102450001A408282828A0A438282704721B1828A2C
:1024600042F00202828204E0828A4FF6FD731A4033
:102470008282704702460020B1F5007F00D100BF84
:1024800013880B400BB1012000E00020704701F4DD
:102490000072B2F5007F00D100BFCA4302807047CE
:1024A00070B50246002400230025002040F66A167D
:1024B000B14200D100BFC1F3421501F01F03012654
:1024C00006FA03F3012D02D19689334006E0022D6E
:1024D00002D1168A334001E0968A33400C1201265D
:1024E00006FA04F41688344013B10CB1012000E060
:1024F000002070BD10B50022002340F66A14A142EE
:1025000000D100BF0A1201249440A3B2DC4304802E
:1025100010BD000000380140004400400048004069
:10252000004C004000500040002044490860091D54
:102530000860091D0860091D086041483F491431C1
:102540000860704700213D498279002A3AD00A4646
:10255000126803689A430B461A600A1D12680368E2
:102560009A430B1D1A60027911440A6803681A43E2
:102570000A60324A0832126803689A432F4B0833C4
:102580001A601A1D126803689A432C4B0C331A60A8
:102590004279102A0ED11A1F126803681A43274B7A
:1025A00008331A601A1D126803681A43234B0C3350
:1025B0001A600DE02149427911440A6803681A4300
:1025C0000A6005E0027911440A6803689A430A60C8
:1025D00070470021016001710C214171002181715E
:1025E00070471649103109680143144A10321160CE
:1025F000704701460020114A143212680A400AB19D
:10260000012000E0002070470C4914310860704739
:10261000014600200022094B1B6803EA0102074B18
:1026200014331B680B4013B10AB1012000E00020F5
:1026300070470249143108607047000000040140EF
:10264000FFFF0F000E49086070470D494860704752
:102650000B49886070474AF6AA200949086070470C
:102660004CF6CC4006490860704701460020044AF9
:10267000D2680A400AB1012000E000207047000043
:102680000030004010B50446FE48844208D10121C4
:10269000C014FFF7FBFC0021E014FFF7F7FCC4E0D7
:1026A000B4F1804F08D101210846FFF7FCFC00215E
:1026B0000120FFF7F8FCB8E0F348844208D101217B
:1026C0000220FFF7F0FC00210220FFF7ECFCACE059
:1026D000EE48844208D101210420FFF7E4FC0021E8
:1026E0000420FFF7E0FCA0E0E948844208D1012182
:1026F0000820FFF7D8FC00210820FFF7D4FC94E065
:10270000E448844208D101211020FFF7CCFC0021CD
:102710001020FFF7C8FC88E0DF48844208D101217F
:102720002020FFF7C0FC00212020FFF7BCFC7CE04C
:10273000DA48844208D101214014FFF7A7FC0021A8
:102740006014FFF7A3FC70E0D548844209D1012151
:10275000C804FFF79BFC00214FF40020FFF796FC14
:1027600063E0D048844209D101210805FFF78EFCBF
:1027700000214FF48010FFF789FC56E0CA488442DC
:1027800009D101214805FFF781FC00214FF4001019
:10279000FFF77CFC49E0C548844208D10121402074
:1027A000FFF781FC00214020FFF77DFC3DE0C048A1
:1027B000844208D101218020FFF775FC0021802090
:1027C000FFF771FC31E0BB48844208D1012180153C
:1027D000FFF769FC0021A015FFF765FC25E0B6486E
:1027E000844209D101210804FFF750FC00214FF475
:1027F0008030FFF74BFC18E0B048844209D101213A
:102800004804FFF743FC00214FF40030FFF73EFC83
:102810000BE0AB48844208D101218804FFF736FC65
:1028200000214FF48020FFF731FC10BD0022028808
:10283000944B98420ED0994B98420BD0B0F1804FF8
:1028400008D0914B984205D0904B984202D0904BC3
:10285000984204D14FF68F731A404B881A438D4B20
:10286000984207D08C4B984204D04FF6FF431A4051
:10287000CB881A4302808B8883850B880385814B24
:1028800098420BD0854B984208D08B4B984205D08C
:102890008A4B984202D08A4B984201D10B7A038628
:1028A00001238382704770B5002400220023058C29
:1028B0004FF6FE7635400584028C8388048B4FF6F4
:1028C0008F752C40B51E2C400D882C43751E2A4058
:1028D0000D892A434D882A436A4DA8420BD06F4D7B
:1028E000A84208D0744DA84205D0744DA84202D029
:1028F000734DA84213D14FF6F7752A404D892A43EC
:102900004FF6FB752A408D882A434FF6FF652B4012
:102910004FF6FF552B408D892B43CD892B43838068
:102920000483CD888586028470BD70B500240022A2
:102930000023058C4FF6EF7635400584028C8388A2
:10294000048B48F6FF752C404FF6FF452C400D8850
:102950004FF6FF7606EA05252C434FF6DF752A4031
:102960000D8906EA05152A434D8806EA05152A430E
:10297000444DA84202D0494DA8421DD14FF67F7563
:102980002A404D894FF6FF7606EA05152A434FF691
:10299000BF752A408D8806EA05152A434FF6FF3594
:1029A0002B404FF2FF752B408D8906EA85052B439E
:1029B000CD8906EA85052B4383800483CD8805876E
:1029C000028470BD70B5002400220023058C4FF6F0
:1029D000FF6635400584028C8388848B4FF68F75A3
:1029E0002C404FF6FC752C400D882C434FF6FF55BC
:1029F0002A400D894FF6FF7606EA05252A434D88C1
:102A000006EA05252A431F4DA84202D0234DA842BD
:102A10001DD14FF2FF752A404D894FF6FF7606EA29
:102A200005252A434FF6FF352A408D8806EA0525FD
:102A30002A434EF6FF752B404DF6FF752B408D89CE
:102A400006EA05152B43CD8906EA05152B4383803D
:102A50008483CD888587028470BD70B500220023F1
:102A60000024058C4EF6FF7635400584038C84885F
:102A7000828B48F6FF752A404FF6FF452A400D88A5
:102A800020E00000002C014000040040000800404D
:102A9000000C0040001000400014004000340140D1
:102AA000004C01400050014000540140001800401B
:102AB000001C004000200040004001400044014054
:102AC000004801404FF6FF7606EA05252A434DF6F9
:102AD000FF752B400D8906EA05352B434D8806EA24
:102AE00005352B43FA4DA84202D0FA4DA84208D131
:102AF0004BF6FF752C408D894FF6FF7606EA85155B
:102B00002C4384808283CD88A0F84050038470BD1C
:102B1000828B4FF2FF331A408283828B4FF6FF7312
:102B200003EA01231A4382837047F0B50C46154629
:102B3000002200210026078C4EF6FF7C07EA0C07D6
:102B40000784828B018C4FF6FF7707EA043640F644
:102B5000FF473A404FF6FF7707EA05273A434FF61B
:102B6000FF7707EA03373A43D94FB8420ED0D94F1F
:102B7000B8420BD0B0F1804F08D0D74FB84205D043
:102B8000D64FB84202D0D64FB84206D14DF6FF77A5
:102B9000394046F48057394305E047F6FF5739403E
:102BA00044F48057394382830184F0BD828B4FF611
:102BB000F3731A408283828B0A4382837047F0B595
:102BC0000C461546002200210026078C4FF6FF6CAC
:102BD00007EA0C070784828B018C4FF6FF7707EA20
:102BE00004264FF60C773A404FF6FF7707EA0317B3
:102BF0002F433A43B64FB8420ED0B64FB8420BD02F
:102C0000B0F1804F08D0B44FB84205D0B34FB842AE
:102C100002D0B34FB84206D14FF6FF57394046F4C1
:102C20008077394305E04FF2FF57394044F480770D
:102C3000394382830184F0BD028B4FF2FF331A4087
:102C40000283028B4FF6FF7303EA01231A430283C8
:102C50007047F0B50C461546002200210026078C6F
:102C60004FF6EF7C07EA0C070784028B018C4FF6C6
:102C7000FF7707EA041640F6FF473A404FF6FF7722
:102C800007EA03373A434FF6FF7707EA05273A4347
:102C90008F4FB8420ED08F4FB8420BD0B0F1804F5B
:102CA00008D08D4FB84205D08C4FB84202D08C4F1F
:102CB000B84206D14FF6DF77394046F01007394366
:102CC00005E04FF65F77394044F01007394302833F
:102CD0000184F0BD028B4FF6F3731A400283028B1E
:102CE0000A4302837047F0B50C46154600220021C6
:102CF000068C4FF6FE773E400684028B018C4FF621
:102D00000C7632407E1C06EA03162E433243704E88
:102D1000B0420ED06F4EB0420BD0B0F1804F08D011
:102D20006D4EB04205D06D4EB04202D06C4EB042F6
:102D300006D14FF6FD76314044F00106314305E0FF
:102D40004FF6F576314044F00106314302830184A9
:102D5000F0BD70B505460C465D4885420ED05D4815
:102D600085420BD0B5F1804F08D05B48854205D035
:102D70005A48854202D05A48854200D100E000BF3F
:102D8000208850B92389A28861882846FFF7ABFFC5
:102D9000E1882846FFF79EFF25E0208804280AD115
:102DA0002389A28861882846FFF753FFE1882846D7
:102DB000FFF742FF17E0208808280AD12389A2885C
:102DC00061882846FFF7FBFEE1882846FFF7EEFE04
:102DD00009E02389A28861882846FFF7A6FEE188DA
:102DE0002846FFF795FE70BD2DE9F04105460C46DB
:102DF00000260127608808B9022600E00026A08886
:102E0000012801D1022700E001272088A0B92389E9
:102E1000A28861882846FFF766FFE1882846FFF709
:102E200059FF23893A4631462846FFF712FFE188C9
:102E30002846FFF701FF13E02389A288618828460E
:102E4000FFF707FFE1882846FFF7F6FE23893A4699
:102E500031462846FFF747FFE1882846FFF73AFF4B
:102E6000BDE8F0810A884B881A438B881A43CB88C7
:102E70001A430B891A434B891A438B891A43A0F8CA
:102E8000442070474FF6FF71818000210180C1808E
:102E90004180017270470021018041808180C180A2
:102EA000018141818181C181704700210180418080
:102EB000012181800021C1800181704700210180B2
:102EC00041808180C1800181418181817047000002
:102ED000002C014000340140000400400008004084
:102EE000000C004021B1028842F00102028004E09F
:102EF00002884FF6FE731A400280704731B1B0F875
:102F0000442042F40042A0F8442005E0B0F84420F8
:102F1000C2F30E02A0F8442070471AB183890B4314
:102F2000838102E083898B4383817047818270476C
:102F300041EA0203A0F8483070471AB183890B4375
:102F4000838102E083898B438381704701894FF637
:102F5000F8721140018170470A46002101894FF63D
:102F60008F73194011430181704730B504460D46F7
:102F700029462046FFF7F0FF208940F00700208116
:102F800030BD2DE9F04104460D4616461F46602D22
:102F900006D13B46012231462046FFF75AFE05E0A6
:102FA0003B46012231462046FFF79DFE294620463A
:102FB000FFF7D2FF208940F007002081BDE8F081B3
:102FC00030B50C4600210189C9B24FF6FF7505EAFC
:102FD0000325154325432943018130BD2DE9F041E7
:102FE00005460E4617469846002443463A46314663
:102FF0002846FFF7E5FF2C894FF6F870044044F0AF
:1030000007044FF68F70044044F070042C81BDE833
:10301000F081F0B504460D4616461F463B46324643
:1030200029462046FFF7CCFF208940F480402081CC
:10303000F0BD0185828270470A46002101884FF663
:103040008F731940114301807047F0B50C46154647
:103050001E460021002200230189028B038C4FF6BB
:10306000F877394021434FF6FC473A4040F20117C8
:103070003A434FF6DD773B404FF6FF7707EA0617F6
:103080002F433B43018102830384F0BD0A460021A4
:10309000018B4FF68F7319401143018370470A4625
:1030A0000021018B48F6FF7319404FF6FF7303EAC6
:1030B00002231943018370470A460021818B4FF692
:1030C0008F7319401143818370470A460021818B19
:1030D00048F6FF7319404FF6FF7303EA02231943C2
:1030E0008183704721B1028842F08002028004E0AF
:1030F00002884FF67F731A400280704721B18288A0
:1031000042F00402828004E082884FF6FB731A408A
:103110008280704721B1828842F00802828004E0F8
:1031200082884FF6F7731A408280704721B18288F7
:1031300042F00102828004E082884FF6FE731A405A
:10314000828070470A460021018B4FF6F7731940C1
:103150001143018370470A460021018B4FF2FF7330
:1031600019404FF6FF7303EA0223194301837047A6
:103170000A460021818B4FF6F77319401143818372
:1031800070470A460021818B4FF2FF7319404FF6BA
:10319000FF7303EA02231943818370470A46002123
:1031A000018B4FF6FB7319401143018370470A46A8
:1031B0000021018B4FF6FF3319404FF6FF7303EAEE
:1031C00002231943018370470A460021818B4FF681
:1031D000FB7319401143818370470A460021818B9C
:1031E0004FF6FF3319404FF6FF7303EA02231943EA
:1031F000818370470A460021018B4FF67F73194087
:103200001143018370470A460021018BC1F30E016F
:103210004FF6FF7303EA02231943018370470A46FE
:103220000021818B4FF67F731940114381837047D2
:103230000A460021818BC1F30E014FF6FF7303EAAA
:1032400002231943818370470A460021018C4FF6FF
:10325000FD7319401143018470470A460021018C17
:103260004FF6F77319401143018470470A46002155
:10327000018C4FF6DF7319404FF6FF7303EA021318
:103280001943018470470A460021018C4FF67F7371
:1032900019404FF6FF7303EA021319430184704784
:1032A0000A460021018C4FF6FF5319404FF6FF7379
:1032B00003EA02231943018470470A460021018C66
:1032C0004FF2FF7319404FF6FF7303EA02231943CD
:1032D000018470470A460021018C4DF6FF731940A6
:1032E0004FF6FF7303EA023319430184704730B588
:1032F000002301248C40A3B2048C9C430484048CDE
:1033000002FA01F5ADB22C43048430BD30B5002380
:1033100004248C40A3B2048C9C430484048C02FAE1
:1033200001F5ADB22C43048430BD70B503460020D6
:1033300000241846183001258D40ACB21D8CA543E1
:103340001D8409B1082909D100EB6100056825F049
:10335000700505600568154305600EE00D1FC5F397
:103360004E052844056825F4E045056005684FF6DC
:10337000FF7606EA02263543056070BD21B102885A
:1033800042F00202028004E002884FF6FD731A4008
:103390000280704721B1028842F00402028004E0FA
:1033A00002884FF6FB731A400280704721B1828871
:1033B00042F08002828004E082884FF67F731A40D8
:1033C0008280704702884FF6F7731A4002800288A5
:1033D0000A430280704782884FF68F731A408280BA
:1033E00082880A438280704702894FF6F8731A4038
:1033F000028102890A430281704702894FF67F7376
:103400001A40028102890A43028170478184704711
:103410008185704781867047018770478187704733
:10342000A0F84010704702884FF6FF431A40028010
:1034300002880A43028070470146888E7047014621
:10344000088F70470146888F70470146B1F84000E9
:1034500070470146888C70470146088D70470246C8
:103460000020138A0B400BB1012000E000207047C0
:10347000CA430282704730B5024600200023002470
:10348000158A05EA0103958905EA010413B10CB117
:10349000012000E0002030BDCA43028270470000D6
:1034A00010B50121C802FEF7FEFD00214FF40060B7
:1034B000FEF7F9FD10BD0021194A126822F4C0710F
:1034C0000143174A1160704708B500210091144963
:1034D000096821F07F01009100F07F01009A1143FB
:1034E00000910F4A0099116008BD01200D49086044
:1034F000704700F07F010A4A121F1160704740F0C8
:103500008001074A121F116070470548001D0068BE
:10351000C0B2704700200249091D086070470000D2
:10352000042C0040A480054270477047704700009B
:1035300000487047940800207546FFF7F9FFAE4633
:1035400005006946534620F00700854618B020B5AF
:10355000FEF7E6F9BDE820404FF000064FF0000707
:103560004FF000084FF0000B21F00701AC46ACE82B
:10357000C009ACE8C009ACE8C009ACE8C0098D4698
:1035800070470446AFF300802046FCF738FE000089
:1035900001491820ABBEFEE726000200704700007C
:1035A00010B591EA030F48BF83F0004300F1D483C4
:1035B000841A71EB030C05D2121943EB0C03001BA8
:1035C00061EB0C01DFF824E14FEA1154A4EB135C2A
:1035D0001EEA430F18BF9EEA445F73D023EA0E032E
:1035E000DCF1200E21EA045143F4801332D322FA95
:1035F0000CFE10EB0E0023FA0CFE41EB0E01CCF199
:10360000200E03FA0EFE10EB0E0051F10001B1F591
:10361000801FCCF1200E32D201EB045112FA0EF2CF
:10362000BDE8104058BF7047401C38BF5FEA4202F7
:1036300018BF7047002814BF20F0010041F10001BD
:103640004FEA410313F5001F38BF7047A1F1C04195
:1036500000F03EBB012A43EB0302ACF1200CDCF18D
:103660001F0E32BF4FF0000E23FA0CF310EB0300D5
:1036700041EB0451B4EB115FD0D0A1EB045101F543
:10368000801149085FEA300001EB04510ED350F17C
:10369000000038BF12FA0EFE08D1BDE81040C9E79D
:1036A000401C38BF5FEA4202CAD1C3E7BDE8104000
:1036B0004FEA410313F5001F38BF7047A1F1C04125
:1036C00000F006BB9EEA445F08D011EA5E0FBDE839
:1036D000104004BF01F0004100207047BDE81040D9
:1036E00070B500F0A7FA00BF64FBBE3E0000E0FF2B
:1036F000491058BFC1F140415B1058BFC3F140436E
:103700008B42EFF3008070472DE9C04130B4DFF801
:10371000A0C23CEA111418BF3CEA131400F0EC807C
:1037200081EA03051CEA111444EAD57418BF1CEAA7
:10373000131500F0C780A4EB05044FF0004545EADF
:10374000C12145EAC32341EA505143EA525304F1EF
:103750007F74994204F500344FEAC0204FEAC22238
:1037600008BF904200F09C804FEA13650FF24016AC
:10377000765D4FEA134506FB05F7C7F1807706FB38
:1037800007F74FEAD737A7FB03687642C8F58038BA
:10379000A7FB06CE38BFA8F1010807FB08E64FF0EB
:1037A000000EA6FB028CE6FB03CEDCF1000CCEF192
:1037B000004E38BFAEF1010EA6FB0C584FF00007CB
:1037C0004FF00005E6FB0E87A1FB08C6A0FB07CE65
:1037D00016EB0E0645F10005E1FB076515F1E04E1D
:1037E0007EBFA4F580345FEA46066D4116F180077E
:1037F00045F100054FEA17274FEA066647EA0567D5
:10380000A6F1DE46B6F1805F4FEA15251FD938468E
:1038100024F0010C05EBC471BCF1FE6F01EB0C113F
:1038200002D8F0BCBDE8008124425CBF01F5801ED7
:103830009EEAC47F02D4F0BCBDE80081244238D4A3
:10384000F0BCA1F1C041BDE8004100F041BA4FEA2F
:10385000D22242EA43524FEAD323A7FB02864FEA21
:10386000D02040EA415007FB03661EEA0E0F4FEAE4
:10387000D12105FB026658BFA6EB0056B6EB0056F9
:103880004FEA520E4EEAC37E18EB0E0E56EB530E65
:10389000BDD518EB02085E417F1C55F10005B6E767
:1038A0004FF480154FF000074FF000064FF000086E
:1038B000ADE7F0BC4FF0000001F1C04101F0004164
:1038C000BDE8008111EA0C1F0CEA131500D00CE0D2
:1038D00013EA0C1F00F025804FF00000F0BC81EAD5
:1038E000030101F00041BDE80081F0BCBDE80041EA
:1038F00081EA030100F0ECB9F0BCBDE8004170B50D
:1039000000F098F9097EFC3E00F007B881EA030157
:103910004FF0000001F00041704781EA030100F020
:10392000D7B9F0BCBDE800414FF000002149704715
:10393000FFFDFBF9F7F5F4F2F0EEEDEBE9E8E6E474
:10394000E3E1E0DEDDDBDAD8D7D5D4D3D1D0CFCDFB
:10395000CCCBCAC8C7C6C5C4C2C1C0BFBEBDBCBB34
:10396000BAB9B8B7B6B5B4B3B2B1B0AFAEADACAB2F
:10397000AAA9A8A8A7A6A5A4A3A3A2A1A09F9F9E09
:103980009D9C9C9B9A9999989797969595949393BB
:10399000929191908F8F8E8E8D8C8C8B8B8A898952
:1039A00088888787868585848483838282818180D5
:1039B0000000FF070000F87F4FEA1153A3F5806372
:1039C000D3F11E03A8BFD3F1200C08DB4FF0004257
:1039D00042EAC12252EA505232FA03F070470942D9
:1039E0000BD4102BC4BF0020704703F5787CBCF1CA
:1039F000FF3F05D04FF0FF3070474FF00000704799
:103A000070B500F017F900BF49922480002070477C
:103A1000F0E710F0004248BF4042B0FA80F310FADD
:103A200003F10AD0C3F11D0303F580634FEA41504F
:103A300002EB035202EBD12170474FF000007047B8
:103A4000B0FA80F310FA03F10AD0C3F11D0303F5B5
:103A500080634FEA41504FEA035202EBD121704795
:103A60004FF000007047000051EA030C17D41CF51A
:103A7000801F58BFBCF5801F00F10680994218BF17
:103A8000704708BF9042704707D711F5801F58BF95
:103A900013F5801F19D499427047894270471CF56D
:103AA000801F08D5BCF5801FF7D58B4218BF704723
:103AB00008BF824270474FF4001C1CEB410F38BF17
:103AC0001CEB430F01D28B42704770B500F0B2F887
:103AD000922449004FF000514FF08053FFF708BE89
:103AE000DFF848C170B51CEA111E1EBF1CEA131591
:103AF0009EEA0C0F95EA0C0F00F06F8081EA030438
:103B000023EA4C134EEAD47E21EA4C1141F4801191
:103B100043F48013AE44A1FB024CA0FB0365AEF15D
:103B20007F7E361955EB0C05A1FB034C4CF10003CD
:103B3000A0FB021C16EB0C06654153F10003094281
:103B400018BF46F0010613F4007F0BD14FEA033192
:103B50004FEA0530340341EA155140EA16506FF040
:103B600003020AE04FEAC3214FEAC520F40241EA0A
:103B7000555140EA56506FF0020202EB2E4201EB23
:103B8000025585EACE710AD05FEA440C18BF24F0D2
:103B9000004450F1000041F1000120EAD47040F2ED
:103BA000FE7C624500D270BDA84214BF4FF0804435
:103BB0004FF04044002E08BF0024BEF1806FA8BF24
:103BC000A1F1C041BDE8704080F282804FF000005A
:103BD00001F1C04101F0004170479EEA0C0F0CEA70
:103BE000131518BF95EA0C0F06D04FF0000081EABC
:103BF000030E0EF0004170BD00F01CF88900013E7C
:103C000000F007B800F009B84FEA430C5FEA5C5CCB
:103C100008D081EA030100F05BB84FEA410C5FEA8B
:103C20005C5CF6D14FF00000014970470000FF07CF
:103C30000000F87F0EF1020E2EF0030E5EF8046B0A
:103C4000364205D4012A43EB030515F5001F12D8AF
:103C5000012841EB010C1CF5001F0CD80ED14FEAD6
:103C6000D17C15F5001F0CEB4C0C0CF1020C08BFBD
:103C70004CEBD37C04E04FF0080C01E04FEAD37C1E
:103C80000CEB4C0526FA05F606F00706B6F1040C17
:103C900006D20EEB860CBDE870404CF0010C60477C
:103CA000DFE80CF0090B02024FF000414FF000007A
:103CB000A1F5002170BD19461046012851EB010401
:103CC00018BFD4F5001484BF002001F0004170BD7E
:103CD0000808A0F500114FEA3101704753EA010CC2
:103CE00017D41CF5801F58BFBCF5801F00F106805B
:103CF0008B4218BF704708BF8242704707D713F541
:103D0000801F58BF11F5801F19D48B4270479B420A
:103D100070471CF5801F08D5BCF5801FF7D5994268
:103D200018BF704708BF904270474FF4001C1CEB4F
:103D3000430F38BF1CEB410F01D2994270470FB4BB
:103D40000CBC03BCFFF7C1BE10B591EA030F48BF1E
:103D500083F000433FF52CAC841A71EB030C07D2BF
:103D600012198CF0004C43EB0C03001B61EB0C01AF
:103D7000DFF8A4E14FEA1154A4EB135C1EEA430FF1
:103D800018BF9EEA445F00F0B08023EA6E035242FF
:103D900021EA0451C3EB6E0338BF5B1EDCF1200E39
:103DA00025D322FA0CFE10EB0E0043FA0CFE41EB79
:103DB0000E01CCF1200E03FA0EFE10EB0E0051F1B5
:103DC0000001CCF1200E29D412FA0EF201EB0451BD
:103DD000BDE8104058BF7047401C1CBFB2F1004FF7
:103DE000704700280CBF491C20F00100704712EBFF
:103DF000020E43EB030218BF4FF0010E4EEA4202DF
:103E0000ACF1200CDCF11E0E54D943FA0CFE10EB81
:103E10000E0051F1FF31CCF11E0ED5D50EF1010E81
:103E200012FA0EFE404141EB010101EB445C5FEAF6
:103E30005C5C10D910EBDE7001EB045138BFBEF1B1
:103E4000004FBDE8104018BF704700280CBF491C48
:103E500020F00100704730D24FEAD42C11F5001148
:103E600024F400641BD0B1FA81F20B3AA41AA41E08
:103E7000D2F12003914030FA03F31943904001EB53
:103E8000CC71002C01EB0451BDE81040A8BF704775
:103E900001F1C0414FF0000001F000417047B0FA5D
:103EA00080F310FA03F100D110BDE41A173C480565
:103EB000C90AE4E701EB045110BD491001EB0451BC
:103EC000BDE810404FEA300002E04FF000017047BB
:103ED0004A0008BF0042F8D0B2F5001F28BF704763
:103EE00001F000414FF0000070479EEA445F07D0A8
:103EF00011EA5E0FBDE8104004BF002100207047AA
:103F0000BDE8104070B5FFF795FE00BF40DFF63EFC
:103F100083F00041104670470000E0FF0000000001
:103F200000000000002F0000000007000700001440
:103F30007F147F1400242A7F2A120062640813234E
:103F400000364955225000000503000000001C22E5
:103F50004100000041221C000014083E0814000823
:103F6000083E0808000000A06000000808080808D3
:103F7000000060600000002010080402003E51496B
:103F8000453E0000427F4000004261514946002109
:103F900041454B31001814127F1000274545453923
:103FA000003C4A494930000171090503003649497E
:103FB000493600064949291E000036360000000037
:103FC0005636000000081422410000141414141482
:103FD000000041221408000201510906003249592B
:103FE000513E007C1211127C007F49494936003E47
:103FF00041414122007F4141221C007F4949494102
:10400000007F09090901003E4149497A007F0808FB
:10401000087F0000417F4100002040413F01007FB8
:1040200008142241007F40404040007F020C027F84
:10403000007F0408107F003E4141413E007F090996
:104040000906003E4151215E007F091929460046BC
:10405000494949310001017F0101003F4040403F93
:10406000001F2040201F003F4038403F00631408DD
:1040700014630007087008070061514945430000B8
:104080007F41410000552A552A55000041417F00DB
:1040900000040201020400404040404000000102D0
:1040A0000400002054545478007F484444380038B9
:1040B0004444442000384444487F00385454541841
:1040C00000087E0901020018A4A4A47C007F080453
:1040D00004780000447D4000004080847D00007F23
:1040E000102844000000417F4000007C0418047840
:1040F000007C0804047800384444443800FC24243C
:1041000024180018242418FC007C08040408004823
:104110005454542000043F444020003C4040207C44
:10412000001C2040201C003C4030403C0044281033
:104130002844001CA0A0A07C004464544C441414E7
:10414000141414140000000000000000000000001F
:1041500000000000000000F8000000000000003334
:104160003000000000100C06100C060000000000DB
:104170000000000040C07840C0784000043F0404C4
:104180003F040400007088FC08300000001820FF85
:10419000211E0000F008F000E018000000211C03C0
:1041A0001E211E0000F00888700000001E2123243C
:1041B0001927211010160E0000000000000000005A
:1041C00000000000000000E01804020000000007EA
:1041D0001820400000020418E000000000402018F1
:1041E00007000000404080F0804040000202010FC4
:1041F00001020200000000F0000000000101011FA8
:1042000001010100000000000000000080B070000B
:10421000000000000000000000000000000101019B
:10422000010101010000000000000000003030002A
:104230000000000000000000806018040060180604
:104240000100000000E010080810E000000F10203E
:1042500020100F00001010F8000000000020203F88
:104260002020000000700808088870000030282412
:1042700022213000003008888848300000182020B3
:1042800020110E000000C02010F8000000070424D8
:10429000243F240000F8088888080800001921201D
:1042A00020110E0000E0108888180000000F112077
:1042B00020110E0000380808C83808000000003F30
:1042C000000000000070880808887000001C22218F
:1042D00021221C0000E010080810E000000031223C
:1042E00022110F00000000C0C000000000000030DC
:1042F000300000000000008000000000000080602E
:1043000000000000000080402010080000010204AE
:104310000810200040404040404040000404040495
:104320000404040000081020408000000020100851
:1043300004020100007048080808F0000000003086
:1043400036010000C030C828E810E0000718272414
:1043500023140B000000C038E0000000203C2302C2
:104360000227382008F8888888700000203F202025
:1043700020110E00C0300808080838000718202057
:104380002010080008F808080810E000203F20204E
:1043900020100F0008F88888E8081000203F20202F
:1043A0002320180008F88888E8081000203F200023
:1043B00003000000C030080808380000071820205B
:1043C000221E020008F808000008F808203F21011A
:1043D00001213F20000808F8080800000020203FC5
:1043E0002020000000000808F8080800C080808035
:1043F0007F00000008F888C028180800203F20012E
:104400002638200008F8080000000000203F202087
:104410002020300008F8F800F8F80800203F003F9E
:10442000003F200008F830C00008F808203F2000B6
:1044300007183F00E01008080810E0000F102020C7
:1044400020100F0008F808080808F000203F21019C
:1044500001010000E01008080810E0000F182424F3
:1044600038504F0008F8888888887000203F200066
:10447000030C30200070880808083800003820211C
:1044800021221C00180808F8080818000000203F26
:104490002000000008F808000008F808001F20208D
:1044A00020201F000878880000C83808000007385E
:1044B0000E010000F80800F80008F800033C0700AF
:1044C000073C0300081868808068180820302C0317
:1044D000032C30200838C800C83808000000203FEE
:1044E0002000000010080808C838080020382621DD
:1044F00020201800000000FE020202000000007FE1
:1045000040404000000C30C00000000000000001EE
:104510000638C00000020202FE00000000404040D9
:104520007F000000000004020202040000000000FE
:10453000000000000000000000000000808080807B
:104540008080808000020204000000000000000063
:1045500000000000000080808080000000192422FC
:1045600022223F2008F8008080000000003F112038
:1045700020110E000000008080800000000E11203D
:1045800020201100000000808088F800000E11201B
:1045900020103F200000808080800000001F222229
:1045A00022221300008080F0888888180020203F95
:1045B000202000000000808080808000006B9494A8
:1045C0009493600008F8008080800000203F210064
:1045D00000203F2000809898000000000020203F2D
:1045E00020200000000000809898000000C080801B
:1045F000807F000008F8000080808000203F2402B7
:104600002D302000000808F8000000000020203FA6
:10461000202000008080808080808000203F20005B
:104620003F20003F8080008080800000203F2100EC
:1046300000203F200000808080800000001F20209C
:1046400020201F00808000808000000080FFA120CB
:1046500020110E000000008080808000000E1120DC
:1046600020A0FF80808080008080800020203F216B
:10467000200001000000808080808000003324241E
:1046800024241900008080E0808000000000001FCA
:10469000202000008080000000808000001F20207B
:1046A00020103F20808080000080808000010E303C
:1046B0000806010080800080008080800F300C039D
:1046C0000C300F0000808000808080000020312EA0
:1046D0000E312000808080000080808080818E707C
:1046E0001806010000808080808080000021302C2E
:1046F0002221300000000000807C02020000000047
:10470000003F404000000000FF00000000000000EB
:10471000FF0000000002027C800000000040403FDB
:104720000000000000060101020204040000000075
:10473000000000005447000800000020940400001E
:104740006C0100083049000894040020640A00004D
:10475000C80100081184A24A04B00A010203040639
:104760000708097F000E11FE0202F2929A969292B9
:10477000F2020202000F1280601F40201744847C66
:1047800004041720403B808201000916E2A2928AAD
:1047900086828080AB408071E11D02027A4A010D61
:1047A000117A02027E7F111E0101013D25011D3D8E
:1047B00041817F0C011100101220242424FE2322A9
:1047C0002020FF20222CA020080F100848847F0200
:1047D000414020130C142241F8C0000F12642C3405
:1047E0002424EC322222322E23A260080D12412111
:1047F0009189874D552525554D81E0080F10806022
:10480000F8074020180F08C808082818C02112FF10
:1048100017100C0340807F0B10010620411EF09002
:104820009090FC040217F0000B13070404047F446B
:10483000444447702E4040405F55011A5F0A0116FC
:104840000808119F95B5FFB5959FBD19BF20082099
:10485000A824FA20A02012E00213FE100A08452F17
:1048600010FF102F4A0D04152F40FF180B20108841
:10487000A4A2E1A2A488104501141608040A103F5E
:10488000041702040800091808E4A6A5F4ACA4E083
:10489000000919100F020207020A1F080914F8087C
:1048A00028FAACA8F828611A20400716262A122AEE
:1048B0002622080C1480848890A0FEA09088848012
:1048C000205B8088010A14FF9F000D149090929441
:1048D000981018141210D0101D7F1414403B121F92
:1048E000290601142BFC240104170404FC2B3F218E
:1048F000010C1320203FDF19BC12200009112020D9
:104900002424E4242020130201127F3F0102040228
:1049100011200801360211010A13F08D0917402CED
:10492000020304040009000607080902040608003F
:0400000508000131BD
:00000001FF
